{"abi":[{"type":"function","name":"count","inputs":[],"outputs":[{"name":"","type":"uint256","internalType":"uint256"}],"stateMutability":"view"},{"type":"function","name":"decrement","inputs":[],"outputs":[],"stateMutability":"nonpayable"},{"type":"function","name":"increment","inputs":[],"outputs":[],"stateMutability":"nonpayable"},{"type":"event","name":"CountChanged","inputs":[{"name":"newCount","type":"uint256","indexed":false,"internalType":"uint256"}],"anonymous":false}],"bytecode":{"object":"0x6080604052348015600e575f80fd5b506101978061001c5f395ff3fe608060405234801561000f575f80fd5b506004361061003f575f3560e01c806306661abd146100435780632baeceb71461005d578063d09de08a14610067575b5f80fd5b61004b5f5481565b60405190815260200160405180910390f35b61006561006f565b005b610065610112565b5f8054116100c35760405162461bcd60e51b815260206004820152601760248201527f436f756e742063616e6e6f7420676f2062656c6f772030000000000000000000604482015260640160405180910390fd5b5f805490806100d183610134565b91905055507f0ef4482aceb854636f33f9cd319f9e1cd6fe3aa2e60523f3583c287b893824455f5460405161010891815260200190565b60405180910390a1565b5f805490806100d183610149565b634e487b7160e01b5f52601160045260245ffd5b5f8161014257610142610120565b505f190190565b5f6001820161015a5761015a610120565b506001019056fea2646970667358221220397609fcddd6e233181417560b11d6e061d51b7e3210995a23746f2751dd5db164736f6c63430008190033","linkReferences":{}},"methodIdentifiers":{"count()":"06661abd","decrement()":"2baeceb7","increment()":"d09de08a"},"id":19}